{
  "_format": "hh-sol-artifact-1",
  "contractName": "Shoponetoics",
  "sourceName": "contracts/Dappazon.sol",
  "abi": [
    {
      "inputs": [],
      "stateMutability": "nonpayable",
      "type": "constructor"
    },
    {
      "anonymous": false,
      "inputs": [
        {
          "indexed": false,
          "internalType": "address",
          "name": "buyer",
          "type": "address"
        },
        {
          "indexed": false,
          "internalType": "uint256",
          "name": "orderId",
          "type": "uint256"
        },
        {
          "indexed": false,
          "internalType": "uint256",
          "name": "itemId",
          "type": "uint256"
        }
      ],
      "name": "Buy",
      "type": "event"
    },
    {
      "anonymous": false,
      "inputs": [
        {
          "indexed": false,
          "internalType": "string",
          "name": "name",
          "type": "string"
        },
        {
          "indexed": false,
          "internalType": "uint256",
          "name": "cost",
          "type": "uint256"
        },
        {
          "indexed": false,
          "internalType": "uint256",
          "name": "quantity",
          "type": "uint256"
        }
      ],
      "name": "List",
      "type": "event"
    },
    {
      "inputs": [
        {
          "internalType": "uint256",
          "name": "_id",
          "type": "uint256"
        }
      ],
      "name": "buy",
      "outputs": [],
      "stateMutability": "payable",
      "type": "function"
    },
    {
      "inputs": [
        {
          "internalType": "uint256",
          "name": "",
          "type": "uint256"
        }
      ],
      "name": "items",
      "outputs": [
        {
          "internalType": "uint256",
          "name": "id",
          "type": "uint256"
        },
        {
          "internalType": "string",
          "name": "name",
          "type": "string"
        },
        {
          "internalType": "string",
          "name": "category",
          "type": "string"
        },
        {
          "internalType": "string",
          "name": "image",
          "type": "string"
        },
        {
          "internalType": "uint256",
          "name": "cost",
          "type": "uint256"
        },
        {
          "internalType": "uint256",
          "name": "rating",
          "type": "uint256"
        },
        {
          "internalType": "uint256",
          "name": "stock",
          "type": "uint256"
        }
      ],
      "stateMutability": "view",
      "type": "function"
    },
    {
      "inputs": [
        {
          "internalType": "uint256",
          "name": "_id",
          "type": "uint256"
        },
        {
          "internalType": "string",
          "name": "_name",
          "type": "string"
        },
        {
          "internalType": "string",
          "name": "_category",
          "type": "string"
        },
        {
          "internalType": "string",
          "name": "_image",
          "type": "string"
        },
        {
          "internalType": "uint256",
          "name": "_cost",
          "type": "uint256"
        },
        {
          "internalType": "uint256",
          "name": "_rating",
          "type": "uint256"
        },
        {
          "internalType": "uint256",
          "name": "_stock",
          "type": "uint256"
        }
      ],
      "name": "list",
      "outputs": [],
      "stateMutability": "nonpayable",
      "type": "function"
    },
    {
      "inputs": [
        {
          "internalType": "address",
          "name": "",
          "type": "address"
        }
      ],
      "name": "orderCount",
      "outputs": [
        {
          "internalType": "uint256",
          "name": "",
          "type": "uint256"
        }
      ],
      "stateMutability": "view",
      "type": "function"
    },
    {
      "inputs": [
        {
          "internalType": "address",
          "name": "",
          "type": "address"
        },
        {
          "internalType": "uint256",
          "name": "",
          "type": "uint256"
        }
      ],
      "name": "orders",
      "outputs": [
        {
          "internalType": "uint256",
          "name": "time",
          "type": "uint256"
        },
        {
          "components": [
            {
              "internalType": "uint256",
              "name": "id",
              "type": "uint256"
            },
            {
              "internalType": "string",
              "name": "name",
              "type": "string"
            },
            {
              "internalType": "string",
              "name": "category",
              "type": "string"
            },
            {
              "internalType": "string",
              "name": "image",
              "type": "string"
            },
            {
              "internalType": "uint256",
              "name": "cost",
              "type": "uint256"
            },
            {
              "internalType": "uint256",
              "name": "rating",
              "type": "uint256"
            },
            {
              "internalType": "uint256",
              "name": "stock",
              "type": "uint256"
            }
          ],
          "internalType": "struct Shoponetoics.Item",
          "name": "item",
          "type": "tuple"
        }
      ],
      "stateMutability": "view",
      "type": "function"
    },
    {
      "inputs": [],
      "name": "owner",
      "outputs": [
        {
          "internalType": "address",
          "name": "",
          "type": "address"
        }
      ],
      "stateMutability": "view",
      "type": "function"
    },
    {
      "inputs": [],
      "name": "withdraw",
      "outputs": [],
      "stateMutability": "nonpayable",
      "type": "function"
    }
  ],
  "bytecode": "0x608060405234801561001057600080fd5b50336000806101000a81548173ffffffffffffffffffffffffffffffffffffffff021916908373ffffffffffffffffffffffffffffffffffffffff160217905550611702806100606000396000f3fe6080604052600436106100705760003560e01c80638da5cb5b1161004e5780638da5cb5b14610107578063bfb231d214610132578063d96a094a14610175578063eea8a7e81461019157610070565b80633ccfd60b14610075578063713d856b1461008c578063793b8c6d146100c9575b600080fd5b34801561008157600080fd5b5061008a6101ba565b005b34801561009857600080fd5b506100b360048036038101906100ae9190610cf2565b6102ac565b6040516100c09190610d38565b60405180910390f35b3480156100d557600080fd5b506100f060048036038101906100eb9190610d7f565b6102c4565b6040516100fe929190610f08565b60405180910390f35b34801561011357600080fd5b5061011c6104dd565b6040516101299190610f47565b60405180910390f35b34801561013e57600080fd5b5061015960048036038101906101549190610f62565b610501565b60405161016c9796959493929190610fd9565b60405180910390f35b61018f600480360381019061018a9190610f62565b6106db565b005b34801561019d57600080fd5b506101b860048036038101906101b39190611192565b610b2b565b005b60008054906101000a900473ffffffffffffffffffffffffffffffffffffffff1673ffffffffffffffffffffffffffffffffffffffff163373ffffffffffffffffffffffffffffffffffffffff161461021257600080fd5b60008060009054906101000a900473ffffffffffffffffffffffffffffffffffffffff1673ffffffffffffffffffffffffffffffffffffffff1647604051610259906112b9565b60006040518083038185875af1925050503d8060008114610296576040519150601f19603f3d011682016040523d82523d6000602084013e61029b565b606091505b50509050806102a957600080fd5b50565b60036020528060005260406000206000915090505481565b600260205281600052604060002060205280600052604060002060009150915050806000015490806001016040518060e001604052908160008201548152602001600182018054610314906112fd565b80601f0160208091040260200160405190810160405280929190818152602001828054610340906112fd565b801561038d5780601f106103625761010080835404028352916020019161038d565b820191906000526020600020905b81548152906001019060200180831161037057829003601f168201915b505050505081526020016002820180546103a6906112fd565b80601f01602080910402602001604051908101604052809291908181526020018280546103d2906112fd565b801561041f5780601f106103f45761010080835404028352916020019161041f565b820191906000526020600020905b81548152906001019060200180831161040257829003601f168201915b50505050508152602001600382018054610438906112fd565b80601f0160208091040260200160405190810160405280929190818152602001828054610464906112fd565b80156104b15780601f10610486576101008083540402835291602001916104b1565b820191906000526020600020905b81548152906001019060200180831161049457829003601f168201915b505050505081526020016004820154815260200160058201548152602001600682015481525050905082565b60008054906101000a900473ffffffffffffffffffffffffffffffffffffffff1681565b600160205280600052604060002060009150905080600001549080600101805461052a906112fd565b80601f0160208091040260200160405190810160405280929190818152602001828054610556906112fd565b80156105a35780601f10610578576101008083540402835291602001916105a3565b820191906000526020600020905b81548152906001019060200180831161058657829003601f168201915b5050505050908060020180546105b8906112fd565b80601f01602080910402602001604051908101604052809291908181526020018280546105e4906112fd565b80156106315780601f1061060657610100808354040283529160200191610631565b820191906000526020600020905b81548152906001019060200180831161061457829003601f168201915b505050505090806003018054610646906112fd565b80601f0160208091040260200160405190810160405280929190818152602001828054610672906112fd565b80156106bf5780601f10610694576101008083540402835291602001916106bf565b820191906000526020600020905b8154815290600101906020018083116106a257829003601f168201915b5050505050908060040154908060050154908060060154905087565b6000600160008381526020019081526020016000206040518060e001604052908160008201548152602001600182018054610715906112fd565b80601f0160208091040260200160405190810160405280929190818152602001828054610741906112fd565b801561078e5780601f106107635761010080835404028352916020019161078e565b820191906000526020600020905b81548152906001019060200180831161077157829003601f168201915b505050505081526020016002820180546107a7906112fd565b80601f01602080910402602001604051908101604052809291908181526020018280546107d3906112fd565b80156108205780601f106107f557610100808354040283529160200191610820565b820191906000526020600020905b81548152906001019060200180831161080357829003601f168201915b50505050508152602001600382018054610839906112fd565b80601f0160208091040260200160405190810160405280929190818152602001828054610865906112fd565b80156108b25780601f10610887576101008083540402835291602001916108b2565b820191906000526020600020905b81548152906001019060200180831161089557829003601f168201915b505050505081526020016004820154815260200160058201548152602001600682015481525050905080608001513410156108ec57600080fd5b60008160c00151116108fd57600080fd5b60006040518060400160405280428152602001838152509050600360003373ffffffffffffffffffffffffffffffffffffffff1673ffffffffffffffffffffffffffffffffffffffff16815260200190815260200160002060008154809291906109669061135d565b919050555080600260003373ffffffffffffffffffffffffffffffffffffffff1673ffffffffffffffffffffffffffffffffffffffff1681526020019081526020016000206000600360003373ffffffffffffffffffffffffffffffffffffffff1673ffffffffffffffffffffffffffffffffffffffff16815260200190815260200160002054815260200190815260200160002060008201518160000155602082015181600101600082015181600001556020820151816001019081610a2d9190611551565b506040820151816002019081610a439190611551565b506060820151816003019081610a599190611551565b506080820151816004015560a0820151816005015560c08201518160060155505090505060018260c00151610a8e9190611623565b60016000858152602001908152602001600020600601819055507f1cbc5ab135991bd2b6a4b034a04aa2aa086dac1371cb9b16b8b5e2ed6b036bed33600360003373ffffffffffffffffffffffffffffffffffffffff1673ffffffffffffffffffffffffffffffffffffffff168152602001908152602001600020548460000151604051610b1e93929190611657565b60405180910390a1505050565b60008054906101000a900473ffffffffffffffffffffffffffffffffffffffff1673ffffffffffffffffffffffffffffffffffffffff163373ffffffffffffffffffffffffffffffffffffffff1614610b8357600080fd5b60006040518060e0016040528089815260200188815260200187815260200186815260200185815260200184815260200183815250905080600160008a8152602001908152602001600020600082015181600001556020820151816001019081610bed9190611551565b506040820151816002019081610c039190611551565b506060820151816003019081610c199190611551565b506080820151816004015560a0820151816005015560c082015181600601559050507ffdbe2a012c10ec01592653978eaa09b5ca60b143a0e617505b2ebcbd911ec5b8878584604051610c6e9392919061168e565b60405180910390a15050505050505050565b6000604051905090565b600080fd5b600080fd5b600073ffffffffffffffffffffffffffffffffffffffff82169050919050565b6000610cbf82610c94565b9050919050565b610ccf81610cb4565b8114610cda57600080fd5b50565b600081359050610cec81610cc6565b92915050565b600060208284031215610d0857610d07610c8a565b5b6000610d1684828501610cdd565b91505092915050565b6000819050919050565b610d3281610d1f565b82525050565b6000602082019050610d4d6000830184610d29565b92915050565b610d5c81610d1f565b8114610d6757600080fd5b50565b600081359050610d7981610d53565b92915050565b60008060408385031215610d9657610d95610c8a565b5b6000610da485828601610cdd565b9250506020610db585828601610d6a565b9150509250929050565b610dc881610d1f565b82525050565b600081519050919050565b600082825260208201905092915050565b60005b83811015610e08578082015181840152602081019050610ded565b60008484015250505050565b6000601f19601f8301169050919050565b6000610e3082610dce565b610e3a8185610dd9565b9350610e4a818560208601610dea565b610e5381610e14565b840191505092915050565b600060e083016000830151610e766000860182610dbf565b5060208301518482036020860152610e8e8282610e25565b91505060408301518482036040860152610ea88282610e25565b91505060608301518482036060860152610ec28282610e25565b9150506080830151610ed76080860182610dbf565b5060a0830151610eea60a0860182610dbf565b5060c0830151610efd60c0860182610dbf565b508091505092915050565b6000604082019050610f1d6000830185610d29565b8181036020830152610f2f8184610e5e565b90509392505050565b610f4181610cb4565b82525050565b6000602082019050610f5c6000830184610f38565b92915050565b600060208284031215610f7857610f77610c8a565b5b6000610f8684828501610d6a565b91505092915050565b600082825260208201905092915050565b6000610fab82610dce565b610fb58185610f8f565b9350610fc5818560208601610dea565b610fce81610e14565b840191505092915050565b600060e082019050610fee600083018a610d29565b81810360208301526110008189610fa0565b905081810360408301526110148188610fa0565b905081810360608301526110288187610fa0565b90506110376080830186610d29565b61104460a0830185610d29565b61105160c0830184610d29565b98975050505050505050565b600080fd5b600080fd5b7f4e487b7100000000000000000000000000000000000000000000000000000000600052604160045260246000fd5b61109f82610e14565b810181811067ffffffffffffffff821117156110be576110bd611067565b5b80604052505050565b60006110d1610c80565b90506110dd8282611096565b919050565b600067ffffffffffffffff8211156110fd576110fc611067565b5b61110682610e14565b9050602081019050919050565b82818337600083830152505050565b6000611135611130846110e2565b6110c7565b90508281526020810184848401111561115157611150611062565b5b61115c848285611113565b509392505050565b600082601f8301126111795761117861105d565b5b8135611189848260208601611122565b91505092915050565b600080600080600080600060e0888a0312156111b1576111b0610c8a565b5b60006111bf8a828b01610d6a565b975050602088013567ffffffffffffffff8111156111e0576111df610c8f565b5b6111ec8a828b01611164565b965050604088013567ffffffffffffffff81111561120d5761120c610c8f565b5b6112198a828b01611164565b955050606088013567ffffffffffffffff81111561123a57611239610c8f565b5b6112468a828b01611164565b94505060806112578a828b01610d6a565b93505060a06112688a828b01610d6a565b92505060c06112798a828b01610d6a565b91505092959891949750929550565b600081905092915050565b50565b60006112a3600083611288565b91506112ae82611293565b600082019050919050565b60006112c482611296565b9150819050919050565b7f4e487b7100000000000000000000000000000000000000000000000000000000600052602260045260246000fd5b6000600282049050600182168061131557607f821691505b602082108103611328576113276112ce565b5b50919050565b7f4e487b7100000000000000000000000000000000000000000000000000000000600052601160045260246000fd5b600061136882610d1f565b91507fffffffffffffffffffffffffffffffffffffffffffffffffffffffffffffffff820361139a5761139961132e565b5b600182019050919050565b60008190508160005260206000209050919050565b60006020601f8301049050919050565b600082821b905092915050565b6000600883026114077fffffffffffffffffffffffffffffffffffffffffffffffffffffffffffffffff826113ca565b61141186836113ca565b95508019841693508086168417925050509392505050565b6000819050919050565b600061144e61144961144484610d1f565b611429565b610d1f565b9050919050565b6000819050919050565b61146883611433565b61147c61147482611455565b8484546113d7565b825550505050565b600090565b611491611484565b61149c81848461145f565b505050565b5b818110156114c0576114b5600082611489565b6001810190506114a2565b5050565b601f821115611505576114d6816113a5565b6114df846113ba565b810160208510156114ee578190505b6115026114fa856113ba565b8301826114a1565b50505b505050565b600082821c905092915050565b60006115286000198460080261150a565b1980831691505092915050565b60006115418383611517565b9150826002028217905092915050565b61155a82610dce565b67ffffffffffffffff81111561157357611572611067565b5b61157d82546112fd565b6115888282856114c4565b600060209050601f8311600181146115bb57600084156115a9578287015190505b6115b38582611535565b86555061161b565b601f1984166115c9866113a5565b60005b828110156115f1578489015182556001820191506020850194506020810190506115cc565b8683101561160e578489015161160a601f891682611517565b8355505b6001600288020188555050505b505050505050565b600061162e82610d1f565b915061163983610d1f565b92508282039050818111156116515761165061132e565b5b92915050565b600060608201905061166c6000830186610f38565b6116796020830185610d29565b6116866040830184610d29565b949350505050565b600060608201905081810360008301526116a88186610fa0565b90506116b76020830185610d29565b6116c46040830184610d29565b94935050505056fea2646970667358221220f0f89ad28c2e9fd10f1dbd00b43b3fb3bd7c32e26bd2a662e077d87bd5d12f9964736f6c63430008110033",
  "linkReferences": {},
  "deployedLinkReferences": {}
}